{
  "_format": "hh-sol-artifact-1",
  "contractName": "BANDECoin",
  "sourceName": "contracts/BANDECoin.sol",
  "abi": [
    {
      "inputs": [
        {
          "internalType": "uint256",
          "name": "valorInicial",
          "type": "uint256"
        }
      ],
      "stateMutability": "nonpayable",
      "type": "constructor"
    },
    {
      "inputs": [
        {
          "internalType": "address",
          "name": "spender",
          "type": "address"
        },
        {
          "internalType": "uint256",
          "name": "allowance",
          "type": "uint256"
        },
        {
          "internalType": "uint256",
          "name": "needed",
          "type": "uint256"
        }
      ],
      "name": "ERC20InsufficientAllowance",
      "type": "error"
    },
    {
      "inputs": [
        {
          "internalType": "address",
          "name": "sender",
          "type": "address"
        },
        {
          "internalType": "uint256",
          "name": "balance",
          "type": "uint256"
        },
        {
          "internalType": "uint256",
          "name": "needed",
          "type": "uint256"
        }
      ],
      "name": "ERC20InsufficientBalance",
      "type": "error"
    },
    {
      "inputs": [
        {
          "internalType": "address",
          "name": "approver",
          "type": "address"
        }
      ],
      "name": "ERC20InvalidApprover",
      "type": "error"
    },
    {
      "inputs": [
        {
          "internalType": "address",
          "name": "receiver",
          "type": "address"
        }
      ],
      "name": "ERC20InvalidReceiver",
      "type": "error"
    },
    {
      "inputs": [
        {
          "internalType": "address",
          "name": "sender",
          "type": "address"
        }
      ],
      "name": "ERC20InvalidSender",
      "type": "error"
    },
    {
      "inputs": [
        {
          "internalType": "address",
          "name": "spender",
          "type": "address"
        }
      ],
      "name": "ERC20InvalidSpender",
      "type": "error"
    },
    {
      "inputs": [
        {
          "internalType": "address",
          "name": "owner",
          "type": "address"
        }
      ],
      "name": "OwnableInvalidOwner",
      "type": "error"
    },
    {
      "inputs": [
        {
          "internalType": "address",
          "name": "account",
          "type": "address"
        }
      ],
      "name": "OwnableUnauthorizedAccount",
      "type": "error"
    },
    {
      "anonymous": false,
      "inputs": [
        {
          "indexed": true,
          "internalType": "address",
          "name": "owner",
          "type": "address"
        },
        {
          "indexed": true,
          "internalType": "address",
          "name": "spender",
          "type": "address"
        },
        {
          "indexed": false,
          "internalType": "uint256",
          "name": "value",
          "type": "uint256"
        }
      ],
      "name": "Approval",
      "type": "event"
    },
    {
      "anonymous": false,
      "inputs": [
        {
          "indexed": true,
          "internalType": "address",
          "name": "previousOwner",
          "type": "address"
        },
        {
          "indexed": true,
          "internalType": "address",
          "name": "newOwner",
          "type": "address"
        }
      ],
      "name": "OwnershipTransferred",
      "type": "event"
    },
    {
      "anonymous": false,
      "inputs": [
        {
          "indexed": true,
          "internalType": "address",
          "name": "from",
          "type": "address"
        },
        {
          "indexed": true,
          "internalType": "address",
          "name": "to",
          "type": "address"
        },
        {
          "indexed": false,
          "internalType": "uint256",
          "name": "value",
          "type": "uint256"
        }
      ],
      "name": "Transfer",
      "type": "event"
    },
    {
      "inputs": [
        {
          "internalType": "address",
          "name": "staker",
          "type": "address"
        }
      ],
      "name": "CalculaRecompensa",
      "outputs": [
        {
          "internalType": "uint256",
          "name": "",
          "type": "uint256"
        }
      ],
      "stateMutability": "view",
      "type": "function"
    },
    {
      "inputs": [],
      "name": "EmpateStake",
      "outputs": [],
      "stateMutability": "nonpayable",
      "type": "function"
    },
    {
      "inputs": [
        {
          "internalType": "address",
          "name": "atacante",
          "type": "address"
        }
      ],
      "name": "SimularAtaqueStake",
      "outputs": [],
      "stateMutability": "nonpayable",
      "type": "function"
    },
    {
      "inputs": [
        {
          "internalType": "uint256",
          "name": "quantidade",
          "type": "uint256"
        }
      ],
      "name": "TokensStake",
      "outputs": [],
      "stateMutability": "nonpayable",
      "type": "function"
    },
    {
      "inputs": [
        {
          "internalType": "address",
          "name": "attacker",
          "type": "address"
        }
      ],
      "name": "VerificaAtaqueMinoria",
      "outputs": [
        {
          "internalType": "bool",
          "name": "",
          "type": "bool"
        }
      ],
      "stateMutability": "view",
      "type": "function"
    },
    {
      "inputs": [
        {
          "internalType": "address",
          "name": "owner",
          "type": "address"
        },
        {
          "internalType": "address",
          "name": "spender",
          "type": "address"
        }
      ],
      "name": "allowance",
      "outputs": [
        {
          "internalType": "uint256",
          "name": "",
          "type": "uint256"
        }
      ],
      "stateMutability": "view",
      "type": "function"
    },
    {
      "inputs": [
        {
          "internalType": "address",
          "name": "spender",
          "type": "address"
        },
        {
          "internalType": "uint256",
          "name": "value",
          "type": "uint256"
        }
      ],
      "name": "approve",
      "outputs": [
        {
          "internalType": "bool",
          "name": "",
          "type": "bool"
        }
      ],
      "stateMutability": "nonpayable",
      "type": "function"
    },
    {
      "inputs": [
        {
          "internalType": "address",
          "name": "account",
          "type": "address"
        }
      ],
      "name": "balanceOf",
      "outputs": [
        {
          "internalType": "uint256",
          "name": "",
          "type": "uint256"
        }
      ],
      "stateMutability": "view",
      "type": "function"
    },
    {
      "inputs": [
        {
          "internalType": "address",
          "name": "",
          "type": "address"
        }
      ],
      "name": "balancoStaking",
      "outputs": [
        {
          "internalType": "uint256",
          "name": "",
          "type": "uint256"
        }
      ],
      "stateMutability": "view",
      "type": "function"
    },
    {
      "inputs": [],
      "name": "decimals",
      "outputs": [
        {
          "internalType": "uint8",
          "name": "",
          "type": "uint8"
        }
      ],
      "stateMutability": "view",
      "type": "function"
    },
    {
      "inputs": [],
      "name": "name",
      "outputs": [
        {
          "internalType": "string",
          "name": "",
          "type": "string"
        }
      ],
      "stateMutability": "view",
      "type": "function"
    },
    {
      "inputs": [],
      "name": "owner",
      "outputs": [
        {
          "internalType": "address",
          "name": "",
          "type": "address"
        }
      ],
      "stateMutability": "view",
      "type": "function"
    },
    {
      "inputs": [],
      "name": "renounceOwnership",
      "outputs": [],
      "stateMutability": "nonpayable",
      "type": "function"
    },
    {
      "inputs": [],
      "name": "symbol",
      "outputs": [
        {
          "internalType": "string",
          "name": "",
          "type": "string"
        }
      ],
      "stateMutability": "view",
      "type": "function"
    },
    {
      "inputs": [],
      "name": "taxaRecompensa",
      "outputs": [
        {
          "internalType": "uint256",
          "name": "",
          "type": "uint256"
        }
      ],
      "stateMutability": "view",
      "type": "function"
    },
    {
      "inputs": [
        {
          "internalType": "address",
          "name": "",
          "type": "address"
        }
      ],
      "name": "tempoStaking",
      "outputs": [
        {
          "internalType": "uint256",
          "name": "",
          "type": "uint256"
        }
      ],
      "stateMutability": "view",
      "type": "function"
    },
    {
      "inputs": [],
      "name": "totalSupply",
      "outputs": [
        {
          "internalType": "uint256",
          "name": "",
          "type": "uint256"
        }
      ],
      "stateMutability": "view",
      "type": "function"
    },
    {
      "inputs": [
        {
          "internalType": "address",
          "name": "to",
          "type": "address"
        },
        {
          "internalType": "uint256",
          "name": "value",
          "type": "uint256"
        }
      ],
      "name": "transfer",
      "outputs": [
        {
          "internalType": "bool",
          "name": "",
          "type": "bool"
        }
      ],
      "stateMutability": "nonpayable",
      "type": "function"
    },
    {
      "inputs": [
        {
          "internalType": "address",
          "name": "from",
          "type": "address"
        },
        {
          "internalType": "address",
          "name": "to",
          "type": "address"
        },
        {
          "internalType": "uint256",
          "name": "value",
          "type": "uint256"
        }
      ],
      "name": "transferFrom",
      "outputs": [
        {
          "internalType": "bool",
          "name": "",
          "type": "bool"
        }
      ],
      "stateMutability": "nonpayable",
      "type": "function"
    },
    {
      "inputs": [
        {
          "internalType": "address",
          "name": "newOwner",
          "type": "address"
        }
      ],
      "name": "transferOwnership",
      "outputs": [],
      "stateMutability": "nonpayable",
      "type": "function"
    }
  ],
  "bytecode": "0x6080604052606460095534801561001557600080fd5b506040516124f63803806124f683398181016040528101906100379190610539565b336040518060400160405280600981526020017f42414e4445436f696e00000000000000000000000000000000000000000000008152506040518060400160405280600381526020017f424e44000000000000000000000000000000000000000000000000000000000081525081600390816100b391906107ac565b5080600490816100c391906107ac565b505050600073ffffffffffffffffffffffffffffffffffffffff168173ffffffffffffffffffffffffffffffffffffffff16036101385760006040517f1e4fbdf700000000000000000000000000000000000000000000000000000000815260040161012f91906108bf565b60405180910390fd5b6101478161018260201b60201c565b5061017c3361015a61024860201b60201c565b600a6101669190610a49565b836101719190610a94565b61025160201b60201c565b50610b6b565b6000600560009054906101000a900473ffffffffffffffffffffffffffffffffffffffff16905081600560006101000a81548173ffffffffffffffffffffffffffffffffffffffff021916908373ffffffffffffffffffffffffffffffffffffffff1602179055508173ffffffffffffffffffffffffffffffffffffffff168173ffffffffffffffffffffffffffffffffffffffff167f8be0079c531659141344cd1fd0a4f28419497f9722a3daafe3b4186f6b6457e060405160405180910390a35050565b60006012905090565b600073ffffffffffffffffffffffffffffffffffffffff168273ffffffffffffffffffffffffffffffffffffffff16036102c35760006040517fec442f050000000000000000000000000000000000000000000000000000000081526004016102ba91906108bf565b60405180910390fd5b6102d5600083836102d960201b60201c565b5050565b600073ffffffffffffffffffffffffffffffffffffffff168373ffffffffffffffffffffffffffffffffffffffff160361032b57806002600082825461031f9190610ad6565b925050819055506103fe565b60008060008573ffffffffffffffffffffffffffffffffffffffff1673ffffffffffffffffffffffffffffffffffffffff168152602001908152602001600020549050818110156103b7578381836040517fe450d38c0000000000000000000000000000000000000000000000000000000081526004016103ae93929190610b19565b60405180910390fd5b8181036000808673ffffffffffffffffffffffffffffffffffffffff1673ffffffffffffffffffffffffffffffffffffffff16815260200190815260200160002081905550505b600073ffffffffffffffffffffffffffffffffffffffff168273ffffffffffffffffffffffffffffffffffffffff16036104475780600260008282540392505081905550610494565b806000808473ffffffffffffffffffffffffffffffffffffffff1673ffffffffffffffffffffffffffffffffffffffff168152602001908152602001600020600082825401925050819055505b8173ffffffffffffffffffffffffffffffffffffffff168373ffffffffffffffffffffffffffffffffffffffff167fddf252ad1be2c89b69c2b068fc378daa952ba7f163c4a11628f55a4df523b3ef836040516104f19190610b50565b60405180910390a3505050565b600080fd5b6000819050919050565b61051681610503565b811461052157600080fd5b50565b6000815190506105338161050d565b92915050565b60006020828403121561054f5761054e6104fe565b5b600061055d84828501610524565b91505092915050565b600081519050919050565b7f4e487b7100000000000000000000000000000000000000000000000000000000600052604160045260246000fd5b7f4e487b7100000000000000000000000000000000000000000000000000000000600052602260045260246000fd5b600060028204905060018216806105e757607f821691505b6020821081036105fa576105f96105a0565b5b50919050565b60008190508160005260206000209050919050565b60006020601f8301049050919050565b600082821b905092915050565b6000600883026106627fffffffffffffffffffffffffffffffffffffffffffffffffffffffffffffffff82610625565b61066c8683610625565b95508019841693508086168417925050509392505050565b6000819050919050565b60006106a96106a461069f84610503565b610684565b610503565b9050919050565b6000819050919050565b6106c38361068e565b6106d76106cf826106b0565b848454610632565b825550505050565b600090565b6106ec6106df565b6106f78184846106ba565b505050565b5b8181101561071b576107106000826106e4565b6001810190506106fd565b5050565b601f8211156107605761073181610600565b61073a84610615565b81016020851015610749578190505b61075d61075585610615565b8301826106fc565b50505b505050565b600082821c905092915050565b600061078360001984600802610765565b1980831691505092915050565b600061079c8383610772565b9150826002028217905092915050565b6107b582610566565b67ffffffffffffffff8111156107ce576107cd610571565b5b6107d882546105cf565b6107e382828561071f565b600060209050601f8311600181146108165760008415610804578287015190505b61080e8582610790565b865550610876565b601f19841661082486610600565b60005b8281101561084c57848901518255600182019150602085019450602081019050610827565b868310156108695784890151610865601f891682610772565b8355505b6001600288020188555050505b505050505050565b600073ffffffffffffffffffffffffffffffffffffffff82169050919050565b60006108a98261087e565b9050919050565b6108b98161089e565b82525050565b60006020820190506108d460008301846108b0565b92915050565b7f4e487b7100000000000000000000000000000000000000000000000000000000600052601160045260246000fd5b60008160011c9050919050565b6000808291508390505b60018511156109605780860481111561093c5761093b6108da565b5b600185161561094b5780820291505b808102905061095985610909565b9450610920565b94509492505050565b6000826109795760019050610a35565b816109875760009050610a35565b816001811461099d57600281146109a7576109d6565b6001915050610a35565b60ff8411156109b9576109b86108da565b5b8360020a9150848211156109d0576109cf6108da565b5b50610a35565b5060208310610133831016604e8410600b8410161715610a0b5782820a905083811115610a0657610a056108da565b5b610a35565b610a188484846001610916565b92509050818404811115610a2f57610a2e6108da565b5b81810290505b9392505050565b600060ff82169050919050565b6000610a5482610503565b9150610a5f83610a3c565b9250610a8c7fffffffffffffffffffffffffffffffffffffffffffffffffffffffffffffffff8484610969565b905092915050565b6000610a9f82610503565b9150610aaa83610503565b9250828202610ab881610503565b91508282048414831517610acf57610ace6108da565b5b5092915050565b6000610ae182610503565b9150610aec83610503565b9250828201905080821115610b0457610b036108da565b5b92915050565b610b1381610503565b82525050565b6000606082019050610b2e60008301866108b0565b610b3b6020830185610b0a565b610b486040830184610b0a565b949350505050565b6000602082019050610b656000830184610b0a565b92915050565b61197c80610b7a6000396000f3fe608060405234801561001057600080fd5b506004361061012c5760003560e01c80638da5cb5b116100ad578063dd62ed3e11610071578063dd62ed3e14610349578063de51c89814610379578063ec1196b114610395578063f2fde38b146103c5578063fffc2011146103e15761012c565b80638da5cb5b1461028f5780639161e0cf146102ad57806395d89b41146102dd578063a9059cbb146102fb578063bdf0be9f1461032b5761012c565b8063313ce567116100f4578063313ce567146101fd5780633bb444c21461021b57806363deb77c1461022557806370a0823114610255578063715018a6146102855761012c565b806306fdde031461013157806307dfbf701461014f578063095ea7b31461017f57806318160ddd146101af57806323b872dd146101cd575b600080fd5b6101396103fd565b60405161014691906113a9565b60405180910390f35b6101696004803603810190610164919061142e565b61048f565b6040516101769190611476565b60405180910390f35b610199600480360381019061019491906114c7565b6104e5565b6040516101a69190611476565b60405180910390f35b6101b7610508565b6040516101c49190611516565b60405180910390f35b6101e760048036038101906101e29190611531565b610512565b6040516101f49190611476565b60405180910390f35b610205610541565b60405161021291906115a0565b60405180910390f35b61022361054a565b005b61023f600480360381019061023a919061142e565b61063c565b60405161024c9190611516565b60405180910390f35b61026f600480360381019061026a919061142e565b610701565b60405161027c9190611516565b60405180910390f35b61028d610749565b005b61029761075d565b6040516102a491906115ca565b60405180910390f35b6102c760048036038101906102c2919061142e565b610787565b6040516102d49190611516565b60405180910390f35b6102e561079f565b6040516102f291906113a9565b60405180910390f35b610315600480360381019061031091906114c7565b610831565b6040516103229190611476565b60405180910390f35b610333610854565b6040516103409190611516565b60405180910390f35b610363600480360381019061035e91906115e5565b61085a565b6040516103709190611516565b60405180910390f35b610393600480360381019061038e9190611625565b6108e1565b005b6103af60048036038101906103aa919061142e565b6109cc565b6040516103bc9190611516565b60405180910390f35b6103df60048036038101906103da919061142e565b6109e4565b005b6103fb60048036038101906103f6919061142e565b610a6a565b005b60606003805461040c90611681565b80601f016020809104026020016040519081016040528092919081815260200182805461043890611681565b80156104855780601f1061045a57610100808354040283529160200191610485565b820191906000526020600020905b81548152906001019060200180831161046857829003601f168201915b5050505050905090565b6000600860008373ffffffffffffffffffffffffffffffffffffffff1673ffffffffffffffffffffffffffffffffffffffff16815260200190815260200160002060009054906101000a900460ff169050919050565b6000806104f0610bac565b90506104fd818585610bb4565b600191505092915050565b6000600254905090565b60008061051d610bac565b905061052a858285610bc6565b610535858585610c5a565b60019150509392505050565b60006012905090565b6000600660003373ffffffffffffffffffffffffffffffffffffffff1673ffffffffffffffffffffffffffffffffffffffff168152602001908152602001600020549050600081116105d1576040517f08c379a00000000000000000000000000000000000000000000000000000000081526004016105c890611724565b60405180910390fd5b60006105dc3361063c565b90506000600660003373ffffffffffffffffffffffffffffffffffffffff1673ffffffffffffffffffffffffffffffffffffffff1681526020019081526020016000208190555061062d3382610d4e565b610638303384610c5a565b5050565b600080600760008473ffffffffffffffffffffffffffffffffffffffff1673ffffffffffffffffffffffffffffffffffffffff168152602001908152602001600020544261068a9190611773565b905060006301e1338082600954600660008873ffffffffffffffffffffffffffffffffffffffff1673ffffffffffffffffffffffffffffffffffffffff168152602001908152602001600020546106e191906117a7565b6106eb91906117a7565b6106f59190611818565b90508092505050919050565b60008060008373ffffffffffffffffffffffffffffffffffffffff1673ffffffffffffffffffffffffffffffffffffffff168152602001908152602001600020549050919050565b610751610dd0565b61075b6000610e57565b565b6000600560009054906101000a900473ffffffffffffffffffffffffffffffffffffffff16905090565b60066020528060005260406000206000915090505481565b6060600480546107ae90611681565b80601f01602080910402602001604051908101604052809291908181526020018280546107da90611681565b80156108275780601f106107fc57610100808354040283529160200191610827565b820191906000526020600020905b81548152906001019060200180831161080a57829003601f168201915b5050505050905090565b60008061083c610bac565b9050610849818585610c5a565b600191505092915050565b60095481565b6000600160008473ffffffffffffffffffffffffffffffffffffffff1673ffffffffffffffffffffffffffffffffffffffff16815260200190815260200160002060008373ffffffffffffffffffffffffffffffffffffffff1673ffffffffffffffffffffffffffffffffffffffff16815260200190815260200160002054905092915050565b60008111610924576040517f08c379a000000000000000000000000000000000000000000000000000000000815260040161091b906118bb565b60405180910390fd5b61092f333083610c5a565b80600660003373ffffffffffffffffffffffffffffffffffffffff1673ffffffffffffffffffffffffffffffffffffffff168152602001908152602001600020600082825461097e91906118db565b9250508190555042600760003373ffffffffffffffffffffffffffffffffffffffff1673ffffffffffffffffffffffffffffffffffffffff1681526020019081526020016000208190555050565b60076020528060005260406000206000915090505481565b6109ec610dd0565b600073ffffffffffffffffffffffffffffffffffffffff168173ffffffffffffffffffffffffffffffffffffffff1603610a5e5760006040517f1e4fbdf7000000000000000000000000000000000000000000000000000000008152600401610a5591906115ca565b60405180910390fd5b610a6781610e57565b50565b610a72610dd0565b6000610a7c610508565b905060006064603383610a8f91906117a7565b610a999190611818565b9050610aa58382610d4e565b80600660008573ffffffffffffffffffffffffffffffffffffffff1673ffffffffffffffffffffffffffffffffffffffff1681526020019081526020016000206000828254610af491906118db565b92505081905550600282610b089190611818565b600660008573ffffffffffffffffffffffffffffffffffffffff1673ffffffffffffffffffffffffffffffffffffffff168152602001908152602001600020541115610ba7576001600860008573ffffffffffffffffffffffffffffffffffffffff1673ffffffffffffffffffffffffffffffffffffffff16815260200190815260200160002060006101000a81548160ff0219169083151502179055505b505050565b600033905090565b610bc18383836001610f1d565b505050565b6000610bd2848461085a565b90507fffffffffffffffffffffffffffffffffffffffffffffffffffffffffffffffff8114610c545781811015610c44578281836040517ffb8f41b2000000000000000000000000000000000000000000000000000000008152600401610c3b9392919061190f565b60405180910390fd5b610c5384848484036000610f1d565b5b50505050565b600073ffffffffffffffffffffffffffffffffffffffff168373ffffffffffffffffffffffffffffffffffffffff1603610ccc5760006040517f96c6fd1e000000000000000000000000000000000000000000000000000000008152600401610cc391906115ca565b60405180910390fd5b600073ffffffffffffffffffffffffffffffffffffffff168273ffffffffffffffffffffffffffffffffffffffff1603610d3e5760006040517fec442f05000000000000000000000000000000000000000000000000000000008152600401610d3591906115ca565b60405180910390fd5b610d498383836110f4565b505050565b600073ffffffffffffffffffffffffffffffffffffffff168273ffffffffffffffffffffffffffffffffffffffff1603610dc05760006040517fec442f05000000000000000000000000000000000000000000000000000000008152600401610db791906115ca565b60405180910390fd5b610dcc600083836110f4565b5050565b610dd8610bac565b73ffffffffffffffffffffffffffffffffffffffff16610df661075d565b73ffffffffffffffffffffffffffffffffffffffff1614610e5557610e19610bac565b6040517f118cdaa7000000000000000000000000000000000000000000000000000000008152600401610e4c91906115ca565b60405180910390fd5b565b6000600560009054906101000a900473ffffffffffffffffffffffffffffffffffffffff16905081600560006101000a81548173ffffffffffffffffffffffffffffffffffffffff021916908373ffffffffffffffffffffffffffffffffffffffff1602179055508173ffffffffffffffffffffffffffffffffffffffff168173ffffffffffffffffffffffffffffffffffffffff167f8be0079c531659141344cd1fd0a4f28419497f9722a3daafe3b4186f6b6457e060405160405180910390a35050565b600073ffffffffffffffffffffffffffffffffffffffff168473ffffffffffffffffffffffffffffffffffffffff1603610f8f5760006040517fe602df05000000000000000000000000000000000000000000000000000000008152600401610f8691906115ca565b60405180910390fd5b600073ffffffffffffffffffffffffffffffffffffffff168373ffffffffffffffffffffffffffffffffffffffff16036110015760006040517f94280d62000000000000000000000000000000000000000000000000000000008152600401610ff891906115ca565b60405180910390fd5b81600160008673ffffffffffffffffffffffffffffffffffffffff1673ffffffffffffffffffffffffffffffffffffffff16815260200190815260200160002060008573ffffffffffffffffffffffffffffffffffffffff1673ffffffffffffffffffffffffffffffffffffffff1681526020019081526020016000208190555080156110ee578273ffffffffffffffffffffffffffffffffffffffff168473ffffffffffffffffffffffffffffffffffffffff167f8c5be1e5ebec7d5bd14f71427d1e84f3dd0314c0f7b2291e5b200ac8c7c3b925846040516110e59190611516565b60405180910390a35b50505050565b600073ffffffffffffffffffffffffffffffffffffffff168373ffffffffffffffffffffffffffffffffffffffff160361114657806002600082825461113a91906118db565b92505081905550611219565b60008060008573ffffffffffffffffffffffffffffffffffffffff1673ffffffffffffffffffffffffffffffffffffffff168152602001908152602001600020549050818110156111d2578381836040517fe450d38c0000000000000000000000000000000000000000000000000000000081526004016111c99392919061190f565b60405180910390fd5b8181036000808673ffffffffffffffffffffffffffffffffffffffff1673ffffffffffffffffffffffffffffffffffffffff16815260200190815260200160002081905550505b600073ffffffffffffffffffffffffffffffffffffffff168273ffffffffffffffffffffffffffffffffffffffff160361126257806002600082825403925050819055506112af565b806000808473ffffffffffffffffffffffffffffffffffffffff1673ffffffffffffffffffffffffffffffffffffffff168152602001908152602001600020600082825401925050819055505b8173ffffffffffffffffffffffffffffffffffffffff168373ffffffffffffffffffffffffffffffffffffffff167fddf252ad1be2c89b69c2b068fc378daa952ba7f163c4a11628f55a4df523b3ef8360405161130c9190611516565b60405180910390a3505050565b600081519050919050565b600082825260208201905092915050565b60005b83811015611353578082015181840152602081019050611338565b60008484015250505050565b6000601f19601f8301169050919050565b600061137b82611319565b6113858185611324565b9350611395818560208601611335565b61139e8161135f565b840191505092915050565b600060208201905081810360008301526113c38184611370565b905092915050565b600080fd5b600073ffffffffffffffffffffffffffffffffffffffff82169050919050565b60006113fb826113d0565b9050919050565b61140b816113f0565b811461141657600080fd5b50565b60008135905061142881611402565b92915050565b600060208284031215611444576114436113cb565b5b600061145284828501611419565b91505092915050565b60008115159050919050565b6114708161145b565b82525050565b600060208201905061148b6000830184611467565b92915050565b6000819050919050565b6114a481611491565b81146114af57600080fd5b50565b6000813590506114c18161149b565b92915050565b600080604083850312156114de576114dd6113cb565b5b60006114ec85828601611419565b92505060206114fd858286016114b2565b9150509250929050565b61151081611491565b82525050565b600060208201905061152b6000830184611507565b92915050565b60008060006060848603121561154a576115496113cb565b5b600061155886828701611419565b935050602061156986828701611419565b925050604061157a868287016114b2565b9150509250925092565b600060ff82169050919050565b61159a81611584565b82525050565b60006020820190506115b56000830184611591565b92915050565b6115c4816113f0565b82525050565b60006020820190506115df60008301846115bb565b92915050565b600080604083850312156115fc576115fb6113cb565b5b600061160a85828601611419565b925050602061161b85828601611419565b9150509250929050565b60006020828403121561163b5761163a6113cb565b5b6000611649848285016114b2565b91505092915050565b7f4e487b7100000000000000000000000000000000000000000000000000000000600052602260045260246000fd5b6000600282049050600182168061169957607f821691505b6020821081036116ac576116ab611652565b5b50919050565b7f4e656e68756d20746f6b656e20656d207374616b696e6720706172612072657460008201527f6972617200000000000000000000000000000000000000000000000000000000602082015250565b600061170e602483611324565b9150611719826116b2565b604082019050919050565b6000602082019050818103600083015261173d81611701565b9050919050565b7f4e487b7100000000000000000000000000000000000000000000000000000000600052601160045260246000fd5b600061177e82611491565b915061178983611491565b92508282039050818111156117a1576117a0611744565b5b92915050565b60006117b282611491565b91506117bd83611491565b92508282026117cb81611491565b915082820484148315176117e2576117e1611744565b5b5092915050565b7f4e487b7100000000000000000000000000000000000000000000000000000000600052601260045260246000fd5b600061182382611491565b915061182e83611491565b92508261183e5761183d6117e9565b5b828204905092915050565b7f41207175616e746964616465206465766520736572206d61696f72207175652060008201527f7a65726f00000000000000000000000000000000000000000000000000000000602082015250565b60006118a5602483611324565b91506118b082611849565b604082019050919050565b600060208201905081810360008301526118d481611898565b9050919050565b60006118e682611491565b91506118f183611491565b925082820190508082111561190957611908611744565b5b92915050565b600060608201905061192460008301866115bb565b6119316020830185611507565b61193e6040830184611507565b94935050505056fea26469706673582212201cd8e86ab360eab1f0a2191dd8cf6ecc72f507be0f6da83ea0ee7260c91542b764736f6c634300081b0033",
  "linkReferences": {},
  "deployedLinkReferences": {}
}